S00B00005450342E7372656341
S11300000C9434000C9451000C9451000C94510045
S11300100C9451000C9451000C9451000C94510018
S11300200C9451000C9451000C9451000C94510008
S11300300C9451000C9451000C9444010C94510004
S11300400C9453010C9451000C9471010C94800194
S11300500C9451000C9462010C9451000C945100C6
S11300600C9451000C94510011241FBECFEFD8E022
S1130070DEBFCDBF12E0A0E0B1E0E8E5FBE002C0E6
S113008005900D92AA39B107D9F724E0AAE9B2E0A4
S113009001C01D92AE39B207E1F70E94A4010C948D
S11300A0AA050C94000087EF87B9ECE7F0E080E440
S11300B08083808180628083808183608083EAE79B
S11300C0F0E080E8808380818760808388E080938B
S11300D07E000895EAE7F0E08081806480830895DB
S11300E0EAE7F0E08081886080830895EAE7F0E041
S11300F08081877F8083089580910B0190910C010A
S11301000E9457020895E82FF0E0EE0FFF1FED5F05
S1130110FE4F808191810E94570208950E94B0028F
S1130120811103C00E94A30208950E948802809353
S1130130620380916203882321F0809162030E940C
S11301408202089582E00E9483000E940E02FC0154
S11301502281918180811F922F931F929F931F92DE
S11301608F93809102018F93809101018F938AE98B
S113017092E09F938F930E94C0028AE992E00E94CA
S1130180570281E08093000180930D018DB79EB7E3
S11301900A960FB6F8949EBF0FBE8DBF08950E94B5
S11301A0850280936303809163030E94820280919D
S11301B00001882371F180916303873451F0823503
S11301C019F0823491F40BC0109264031092000170
S11301D012C081E080936403109200010CC082E09D
S11301E0809364031092000106C083E00E948300A0
S11301F081E080930D0180910001811110C081E0A4
S11302000E9483000E943D020E9470000E946A00C6
S113021008950E9443020E9476000E94A20008955D
S113022080916703882329F085B1806285B9109293
S1130230670380916803882329F085B18F7D85B990
S11302401092680380916603882321F00E94CF00F6
S11302501092660380916503882351F060917900C0
S1130260809164030E94FF010E946A00109265035A
S113027080910D01882339F080E00E9483000E9460
S11302803D0210920D0108951F920F920FB60F9226
S113029011248F9381E0809367038F910F900FBE99
S11302A00F901F9018951F920F920FB60F92112462
S11302B08F9381E0809368038F910F900FBE0F900E
S11302C01F9018951F920F920FB60F9211248F93BF
S11302D081E0809365038F910F900FBE0F901F9064
S11302E018951F920F920FB60F9211248F9381E0ED
S11302F0809366038F910F900FBE0F901F901895F7
S11303001F920F920FB60F9211242F933F934F9386
S11303105F936F937F938F939F93AF93BF93EF9369
S1130320FF930E948E00FF91EF91BF91AF919F9137
S11303308F917F916F915F914F913F912F910F908A
S11303400FBE0F901F90189584B1866284B9F894FB
S113035087E690E00E942F020E9453000E94E10170
S113036078940E947C000E941001FDCF8091690363
S113037087BD87B58F3F31F4EEE6F0E080818D7F55
S11303808083089587B5811106C0EEE6F0E0808190
S11303908E7F80830895EEE6F0E080818360808321
S11303A0089580916B0390E0909389008093880076
S11303B0089580916A0390E090938B0080938A0063
S11303C0089583E084BD95E095BD80936E00A0E818
S11303D0B0E081E08C93E1E8F0E088E080838C91E8
S11303E0806F8C9380818560808317BC10928B0012
S11303F010928A001092890010928800089590E06B
S1130400FC01E759FC4F6083880F991FFC01E25FF0
S1130410FE4F0190F081E02D0995089589E693E05F
S11304200895E1ECF0E080818860808381E080932E
S11304306F030895E1ECF0E0808180628083089589
S1130440E1ECF0E080818F7D80830895E1ECF0E0C1
S113045080818061808381E080936E03089590930E
S1130460C5008093C40086E08093C2000E942602E7
S11304700E941102109272030895E1ECF0E0808171
S1130480806880830895E1ECF0E080818F77808339
S1130490089590917103E091710391E09E0F909300
S11304A07103F0E0EE58FC4F808381E008950F93D0
S11304B01F93CF938C01809172038111FCCF81E053
S11304C080936C03F80101900020E9F73197E01B59
S11304D0F10BE0936D030E941A02C0E004C00E9475
S11304E049028111CF5FF801EC0FF11D8081811168
S11304F0F6CFEC2FF0E0EE58FC4F1082CF911F9115
S11305000F9108958093C60008958091C6000895C0
S11305109091700380917103981798F4E09170039F
S1130520F0E0EE58FC4F8081882361F0E091700385
S113053081E08E0F80937003F0E0EE58FC4F8081D1
S1130540089580E008951092700310927103109240
S1130550720310926D0310926C030E94200208959E
S113056080916C03882341F09091700380916D0316
S1130570981304C080E0089580E0089581E0089510
S1130580AEE0B0E0E6ECF2E00C9481050D891E8942
S113059086E08C831A8309838FEF9FE79E838D8384
S11305A0AE01475E5F4F6F89788DCE0101960E9440
S11305B0E202EF81F885E00FF11F10822E96E4E04D
S11305C00C949D05ABE0B0E0E8EEF2E00C9473050A
S11305D06C017B018A01FC0117821682838181FFF1
S11305E0CCC1CE0101963C01F6019381F70193FD44
S11305F0859193FF81917F01882309F4BAC18532E3
S113060039F493FD859193FF81917F01853229F41B
S1130610B60190E00E94D904E7CF912C212C312C13
S1130620FFE1F315D8F08B3279F038F4803279F0A9
S11306308332A1F4232D20611DC08D3261F08033FB
S113064069F4232D216016C0832D8260382EE32D9A
S1130650E4603E2E2AC0F32DF8601DC037FC2DC087
S113066020ED280F2A3040F08E32B9F436FC81C1D7
S1130670232D2064322E19C036FE06C08AE0989ECF
S1130680200D1124922E11C0EAE02E9E200D11247B
S1130690222EF32DF0623F2E08C08C3621F4832DD8
S11306A08068382E02C0883641F4F70193FD8591A5
S11306B093FF81917F018111B3CF982F9F7D955432
S11306C0933028F40C5F1F4F9FE399830DC083364A
S11306D031F0833771F0833509F059C021C0F80136
S11306E0808189830E5F1F4F88248394912C53014A
S11306F013C02801F2E04F0E511CF801A080B18014
S113070036FE03C0692D70E002C06FEF7FEFC501B4
S11307100E94CE044C018201F32DFF773F2E16C0B8
S1130720280122E0420E511CF801A080B18036FE5F
S113073003C0692D70E002C06FEF7FEFC5010E9416
S1130740C3044C01F32DF0683F2E820133FC1BC01F
S1130750822D90E088169906B0F4B60180E290E00C
S11307600E94D9042A94F4CFF50137FC859137FE11
S113077081915F01B60190E00E94D90421102A946E
S113078021E0821A91088114910471F7E8C084363B
S113079011F0893641F5F80137FE07C06081718197
S11307A0828193810C5F1F4F08C060817181072E85
S11307B0000C880B990B0E5F1F4FF32DFF763F2E15
S11307C097FF09C090958095709561957F4F8F4FE5
S11307D09F4FF0683F2E2AE030E0A3010E941505E8
S11307E0882E861845C0853731F4232D2F7EB22EEE
S11307F02AE030E025C0932D997FB92E8F36C1F0C1
S113080018F4883579F0B5C0803719F0883721F0AD
S1130810B0C0E92FE061BE2EB4FE0DC0FB2DF46024
S1130820BF2E09C034FE0AC0292F2660B22E06C08E
S113083028E030E005C020E130E002C020E132E0F1
S1130840F801B7FE07C060817181828193810C5FDA
S11308501F4F06C06081718180E090E00E5F1F4FE2
S1130860A3010E941505882E8618FB2DFF773F2EC5
S113087036FE0DC0232D2E7FA22E891458F434FE8B
S11308800BC032FC09C0832D8E7EA82E05C0B82C67
S1130890A32C03C0B82C01C0B92CA4FE0FC0FE01C8
S11308A0E80DF11D8081803321F49A2D997EA92EC3
S11308B009C0A2FE06C0B394B39404C08A2D8678FE
S11308C009F0B394A3FC11C0A0FE06C0B21488F4CE
S11308D0280C922C9B180EC0B21460F4B60180E26E
S11308E090E00E94D904B394F7CFB21418F42B18F3
S11308F002C0982C212CA4FE10C0B60180E390E025
S11309000E94D904A2FE17C0A1FC03C088E790E0AE
S113091002C088E590E0B6010CC08A2D867859F0B3
S1130920A1FE02C08BE201C080E2A7FC8DE2B60109
S113093090E00E94D904891438F4B60180E390E071
S11309400E94D9049A94F7CF8A94F301E80DF11D1B
S11309508081B60190E00E94D9048110F5CF222055
S113096009F442CEB60180E290E00E94D9042A94B0
S1130970F6CFF6018681978102C08FEF9FEF2B9609
S1130980E2E10C948F05FC01059061507040011068
S1130990D8F7809590958E0F9F1F0895FC016150A4
S11309A0704001900110D8F7809590958E0F9F1F8D
S11309B008950F931F93CF93DF93FB01238121FDB0
S11309C003C08FEF9FEF2CC022FF16C046815781D2
S11309D0248135814217530744F4A081B1819D01DC
S11309E02F5F3F4F318320838C93268137812F5F84
S11309F03F4F3783268314C08B01EC01FB01008435
S1130A00F185E02D0995892BE1F6D80116968D9193
S1130A109C911797019617969C938E931697CE01E7
S1130A20DF91CF911F910F910895FA01AA272830E1
S1130A3051F1203181F1E8946F936E7F6E5F7F4FA7
S1130A408F4F9F4FAF4FB1E03ED0B4E03CD0670F23
S1130A50781F891F9A1FA11D680F791F8A1F911D76
S1130A60A11D6A0F711D811D911DA11D20D009F4C6
S1130A7068943F912AE0269F11243019305D319308
S1130A80DEF6CF010895462F4770405D4193B3E0F1
S1130A900FD0C9F7F6CF462F4F70405D4A3318F098
S1130AA0495D31FD4052419302D0A9F7EACFB4E049
S1130AB0A6959795879577956795BA95C9F7009701
S1130AC06105710508959B01AC010A2E06945795A2
S1130AD0479537952795BA95C9F7620F731F841FF9
S1130AE0951FA01D08952F923F924F925F926F928F
S1130AF07F928F929F92AF92BF92CF92DF92EF92AA
S1130B00FF920F931F93CF93DF93CDB7DEB7CA1B2A
S1130B10DB0B0FB6F894DEBF0FBECDBF09942A8855
S1130B20398848885F846E847D848C849B84AA84FD
S1130B30B984C884DF80EE80FD800C811B81AA818A
S1130B40B981CE0FD11D0FB6F894DEBF0FBECDBF55
S10B0B50ED010895F894FFCFB4
S1130B580114014C01AC0118023C02710201B601F6
S1130B68D901D1010D0A456C20636F6C6F72206D39
S1130B786F73747261646F207469656E6520656C47
S1130B8820636F6469676F205247422023253032FF
S1130B985825303258253032580D0A000D0A53654D
S1130BA86C656363696F6E6520756E61206C65742E
S1130BB872612070617261206D6F64696669636136
S1130BC87220756E20636F6C6F723A0D0A5220287A
S1130BD85265642F526F6A6F290D0A47202847729D
S1130BE865656E2F5665726465290D0A4220284290
S1130BF86C75652F417A756C290D0A000D0A4D6FC5
S1130C086469666971756520656C20706F74656EBA
S1130C1863696F6D6574726F2070617261207661AB
S1130C287269617220656C20636F6C6F722E200D7F
S1130C380A50726573696F6E65206375616C7175AE
S1130C48696572207465636C6120706172612066E5
S1130C58696E616C697A6172206C61206F7065726B
S1130C68616369F36E3A20000D0A4D6F6469666921
S1130C78636163696F6E207265616C697A6164612E
S1130C8820636F6E20657869746F2E000D0A456CB9
S1130C98206461746F20696E6772657361646F2084
S1130CA8657320696E76616C69646F2E20496E7471
S1130CB8656E74656C6F206465206E7565766F2E3D
S1130CC8000D0A4269656E76656E69647820616C08
S1130CD820436F6E74726F6C61646F722064656C0C
S10D0CE8204C45442052474200000E
S9030000FC
