S00B00005450342E7372656341
S11300000C9434000C9451000C9451000C94510045
S11300100C9451000C9451000C9451000C94510018
S11300200C9451000C9451000C9451000C94510008
S11300300C9451000C9451000C9451000C945100F8
S11300400C9451000C9451000C9451000C945100E8
S11300500C9451000C9451000C9451000C945100D8
S11300600C9451000C94510011241FBECFEFD8E022
S1130070DEBFCDBF11E0A0E0B1E0E2EEF0E002C0EF
S113008005900D92A030B107D9F721E0A0E0B1E0CE
S113009001C01D92A030B207E1F70E9453000C94F6
S11300A06F000C940000F8940E9458007894FFCFDD
S11300B089E08093800084E08093810021EE34E025
S11300C030938B0020938A0080936F0082E084BD7C
S11300D093E095BD99EF97BD80936E000895F894D1
S10500E0FFCF4C
S9030000FC
