S00B00005450342E7372656341
S11300000C9434000C9451000C9451000C94510045
S11300100C9451000C9451000C9451000C94510018
S11300200C9451000C9451000C9451000C94510008
S11300300C9451000C9451000C9451000C945100F8
S11300400C9451000C9451000C942D010C9451000B
S11300500C9451000C94F3000C9451000C94510036
S11300600C9451000C94510011241FBECFEFD8E022
S1130070DEBFCDBF12E0A0E0B1E0E2E7F4E002C0F1
S113008005900D92A03AB107D9F723E0A0EAB2E0B7
S113009001C01D92A23DB207E1F70E9451010C94E8
S11300A037020C940000ECE7F0E080E48083808168
S11300B08F7D8083808183608083EAE7F0E080E83D
S11300C0808380818760808388E080937E000895A8
S11300D0EAE7F0E08081806480830895E82FF0E00F
S11300E0EE0FFF1FE65FFE4F808191810E94DD01CC
S11300F00895E82FF0E0EE0FFF1FEA5FFE4F8081C6
S113010091810E94DD010895E82FF0E0EE0FFF1FBA
S1130110EE5FFE4F808191810E94DD010895809100
S1130120C6008093D0038091D0030E94DA018091AD
S11301300101882399F18091D003873469F08235D5
S113014019F08234D9F411C0109200011092010107
S113015080E00E947900089581E08093000110926C
S1130160010180E00E947900089582E080930001FB
S11301701092010180E00E947900089583E0809349
S1130180000180E00E9484008FE39CE90197F1F76D
S113019000C0000081E00E946E0008950E94680083
S11301A080917A0084FFFCCFEAE7F0E080818061EF
S11301B080836091780070917900809100010E94A1
S11301C0A2019FEF20E782E0915020408040E1F7B8
S11301D000C0000081E0809301010E94790081E069
S11301E00E946E0008951F920F920FB60F92112471
S11301F02F933F934F935F936F937F938F939F932B
S1130200AF93BF93EF93FF936091790070E0809177
S113021000010E94A2012FEF80E792E0215080406C
S11302209040E1F700C0000081E0809301010E944A
S1130230790081E00E946E00FF91EF91BF91AF9130
S11302409F918F917F916F915F914F913F912F91EA
S11302500F900FBE0F901F9018951F920F920FB61C
S11302600F9211242F933F934F935F936F937F9338
S11302708F939F93AF93BF93EF93FF930E948F004D
S1130280FF91EF91BF91AF919F918F917F916F916A
S11302905F914F913F912F910F900FBE0F901F9040
S11302A01895F89487E690E00E9424020E94670162
S11302B084B1866284B980E48AB90E945300789438
S11302C080E00E946E0081E00E946E00FFCF83E018
S11302D084BD84B5806C84BD85E085BDA0E8B0E0B4
S11302E081E08C93E1E8F0E088E080838C91806F7A
S11302F08C938081856080838FEF87BD8FEF90E042
S113030090938B0080938A00909389008093880057
S113031016BC109285001092840008958091A0026A
S113032087BD08958091A20290E090938900809304
S1130330880008958091A10290E090938B008093AF
S11303408A000895CF93C82FE82FF0E0CB019923BA
S113035014F481509C4F892F85958595E056FD4F67
S113036080830E94F901C13039F018F0C23039F0AD
S113037008C00E948E0105C00E949A0102C00E941A
S11303809201CF910895E1ECF0E080818860808350
S11303900895E1ECF0E08081806180830895E1ECD0
S11303A0F0E080818068808308958091C00085FF9B
S11303B0FCCF08958093C6000895EF92FF920F93A7
S11303C01F93CF937C01C0E007C00E94D501F801C0
S11303D080810E94DA01CF5F87010C0F111DF801A3
S11303E080818111F2CFCF911F910F91FF90EF90F7
S11303F00895CF93DF93D82F0E94D50189E2D89F27
S1130400812D112482958F70805D0E94DA01D4566B
S11304100E94D501CDECDC9FC12D1124C695C69553
S1130420C69580E38C0F0E94DA010E94D501CC0F9F
S11304308C2F880F880FC80F8D2F8C1B805D0E9416
S1130440DA01DF91CF9108959093C5008093C400A1
S113045086E08093C2000E94C9010E94C30181E02A
S11304608093A3020E94CF011092A4020895F894ED
S1050470FFCFB8
S113047203010E0142018001F10117023F02456CA2
S1130482206461746F20696E6772657361646F20A2
S1130492657320696E76616C69646F2E20496E748F
S11304A2656E74656C6F206465206E7565766F2E5B
S11304B20A00456C206E756D65726F20696E6772F5
S11304C2657361646F20657374612066756572611A
S11304D22064652072616E676F2E20496E74656EAA
S11304E274656C6F206465206E7565766F2E0A00E4
S11304F20D0A50617261206D6F646966696361728D
S113050220656C206272696C6C6F2064656C206378
S11305126F6C6F722073656C656363696F6E61647F
S11305226F2C206D6F6469666971756520656C2036
S1130532706F74656E63696F6D6574726F20792074
S11305426C7565676F2070726573696F6E65206381
S113055275616C7175696572207465636C613A20AA
S1130562000D0A4D6F64696669636163696F6E2089
S11305727265616C697A61646120636F6E2065786B
S113058269746F2E0D0A000D0A4269656E76656EF6
S113059269647820616C20436F6E74726F6C61645D
S11305A26F722064656C204C454420524742000D12
S11305B20A53656C656363696F6E6520756E6120AD
S11305C26C657472612070617261206D6F6469661A
S11305D26963617220756E20636F6C6F723A0D0AE3
S11305E25220285265642F526F6A6F290D0A4720E0
S11305F228477265656E2F5665726465290D0A4235
S11306022028426C75652F417A756C290D0A000009
S9030000FC
