S00B00005450342E7372656341
S11300000C9434000C9451000C9451000C94510045
S11300100C9451000C9451000C9451000C94510018
S11300200C9451000C9451000C9451000C94510008
S11300300C9451000C9451000C942E010C9451001A
S11300400C943D010C9451000C944C010C945B01F4
S11300500C9451000C9451000C9451000C945100D8
S11300600C9451000C94510011241FBECFEFD8E022
S1130070DEBFCDBF12E0A0E0B1E0EAE8F5E002C0E7
S113008005900D92A03AB107D9F723E0A0EAB2E0B7
S113009001C01D92AB3DB207E1F70E947F010C94B1
S11300A0C3020C940000ECE7F0E080E480838081DC
S11300B080628083808183608083EAE7F0E080E867
S11300C0808380818760808388E080937E000895A8
S11300D0EAE7F0E0808180648083089580910C01D8
S11300E090910D010E9434028091060190910701C4
S11300F00E9434020895E82FF0E0EE0FFF1FEA5F3C
S1130100FE4F808191810E9434020895E82FF0E02F
S1130110EE0FFF1FEE5FFE4F808191810E9434023B
S11301200895CF930E9462028093D9038091D903EA
S11301300E945F0280910101882391F18091D9038B
S1130140873469F0823519F08234D1F410C01092EA
S113015000011092010181E00E947B0043C081E014
S113016080930001109201010E947B003BC082E059
S1130170809300011092010181E00E947B0032C053
S113018083E08093000180E00E9486008FE39CE975
S11301900197F1F700C0000080E00E947B0022C0BC
S11301A00E94680080917A0084FFFCCFEAE7F0E0C7
S11301B08081806180839FEF20E782E0915020401E
S11301C08040E1F700C00000609179008091000157
S11301D00E94CE01C1E0C093010182E00E947B0035
S11301E0C093A102CF9108950E948B02811105C092
S11301F00E9480020E94FA0108950E946502809381
S1130200DA038091DA03882321F08091DA030E94D3
S11302105F0208958091A202882329F085B180624B
S113022085B91092A2028091A302882329F085B196
S11302308F7D85B91092A3028091A002882321F0BA
S11302400E9491001092A0028091A102882329F0BB
S113025080E00E947B001092A10208951F920F92E9
S11302600FB60F9211248F9381E08093A2028F9195
S11302700F900FBE0F901F9018951F920F920FB6FC
S11302800F9211248F9381E08093A3028F910F909A
S11302900FBE0F901F9018951F920F920FB60F92DA
S11302A011248F9381E08093A0028F910F900FBE51
S11302B00F901F9018951F920F920FB60F92112452
S11302C02F933F934F935F936F937F938F939F935A
S11302D0AF93BF93EF93FF930E94F400FF91EF91CC
S11302E0BF91AF919F918F917F916F915F914F914A
S11302F03F912F910F900FBE0F901F901895F89477
S113030087E690E00E940F020E94910184B1866208
S113031084B90E94530078940E946E000E940A01DE
S1130320FDCF93E094BD84B5806C84BD85E085BD2C
S113033090936E00A0E8B0E081E08C93E1E8F0E0F7
S113034088E080838C91806F8C938081856080832A
S11303508EEF87BD8EEF90E090938B0080938A00A0
S1130360909389008093880016BC109285001092A7
S1130370840008958091A40287BD08958091A60207
S113038090E0909389008093880008958091A5025D
S113039090E090938B0080938A000895282FE82F93
S11303A0F0E03FEF6303C00111246FE770E00E94A7
S11303B09B02EC55FD4F6083213039F018F0223058
S11303C039F008950E94BA0108950E94C601089563
S11303D00E94BE010895E1ECF0E080818860808392
S11303E081E08093AA020895E1ECF0E080818062CC
S11303F080830895E1ECF0E080818F7D808308950F
S1130400E1ECF0E080818061808381E08093A90247
S11304100895E1ECF0E080818068808308959093F2
S1130420C5008093C40086E08093C2000E9400024D
S11304300E94EB010E9409021092AD020895CF932D
S1130440C82F8091AC020E94FA01E091AC0281E0D5
S11304508E0F8093AC02F0E0E355FD4FC0830E9401
S1130460F40181E0CF9108950F931F93CF938C01F2
S11304708091AD028111FCCFF80101900020E9F7D1
S11304803197E01BF10BE093A80281E08093A7026F
S11304900E94F401C0E004C00E941F028111CF5FDA
S11304A0F801EC0FF11D80818111F6CFEC2FF0E003
S11304B0E355FD4F1082CF911F910F9108958093C2
S11304C0C60008958091C60008959091AB02809172
S11304D0AC02981798F4E091AB02F0E0E355FD4FBD
S11304E08081882361F0E091AB0281E08E0F8093DC
S11304F0AB02F0E0E355FD4F8081089580E008955C
S11305001092AB021092AC021092AD021092A802AB
S11305101092A70208958091A702882341F0909138
S1130520AB028091A802981304C080E0089580E093
S1130530089581E0089597FB072E16F4009407D0E0
S113054077FD09D00E94AF0207FC05D03EF49095D8
S113055081959F4F0895709561957F4F0895AA1BCB
S1130560BB1B51E107C0AA1FBB1FA617B70710F09A
S1130570A61BB70B881F991F5A95A9F780959095CC
S10D0580BC01CD010895F894FFCFEB
S113058A03010E0142018001E00151027702456C28
S113059A206461746F20696E6772657361646F2089
S11305AA657320696E76616C69646F2E20496E7476
S11305BA656E74656C6F206465206E7565766F2E42
S11305CA0A00456C206E756D65726F20696E6772DC
S11305DA657361646F206573746120667565726101
S11305EA2064652072616E676F2E20496E74656E91
S11305FA74656C6F206465206E7565766F2E0A00CB
S113060A0D0A53656C656363696F6E6520756E6167
S113061A206C657472612070617261206D6F646907
S113062A666963617220756E20636F6C6F723A0D2E
S113063A0A5220285265642F526F6A6F290D0A479D
S113064A2028477265656E2F5665726465290D0AFE
S113065A422028426C75652F417A756C290D0A006F
S113066A0D0A50617261206D6F6469666963617213
S113067A20656C206272696C6C6F2064656C2063FF
S113068A6F6C6F722073656C656363696F6E616406
S113069A6F2C206D6F6469666971756520656C20BD
S11306AA706F74656E63696F6D6574726F207920FB
S11306BA6C7565676F2070726573696F6E65206308
S11306CA75616C7175696572207465636C613A2031
S11306DA000D0A4D6F64696669636163696F6E2010
S11306EA7265616C697A61646120636F6E206578F2
S11306FA69746F2E0D0A000D0A4269656E76656E7D
S113070A69647820616C20436F6E74726F6C6164E3
S113071A6F722064656C204C4544205247420000A5
S9030000FC
