S00B00005450342E7372656341
S11300000C9434000C9451000C9451000C94510045
S11300100C9451000C9451000C9451000C94510018
S11300200C9451000C9451000C9451000C94510008
S11300300C9451000C9451000C947D010C945100CB
S11300400C948C010C9451000C94C5010C94D401B3
S11300500C9451000C949B010C9451000C9451008D
S11300600C9451000C94510011241FBECFEFD8E022
S1130070DEBFCDBF14E0A0E0B1E0E0E1FCE002C0EF
S113008005900D92AE39B107D9F726E0AEE9B4E098
S113009001C01D92A43AB207E1F70E94F8010C9442
S11300A006060C940000ECE7F0E080E48083808195
S11300B080628083808183608083EAE7F0E080E867
S11300C0808380818760808388E080937E000895A8
S11300D0EAE7F0E08081806480830895EAE7F0E055
S11300E08081886080830895EAE7F0E08081877FDB
S11300F08083089580910204909103040E94B302C6
S113010081E08093A20408952FEF829FC0011124FF
S11301108B5F9E4F0E94B3020E94990208958091C2
S11301200301909104010E94B30208950E940C03FC
S1130130811103C00E94FF0208950E94E40280938B
S1130140A3068091A306882321F08091A3060E9430
S1130150DE02089582E00E9484000E946A02FC018B
S11301602281918180811F922F931F929F931F92CE
S11301708F93809102018F93809101018F938AED77
S113018095E09F938F930E941C038AED95E00E9453
S1130190B30281E0809300018093A2048DB79EB7DF
S11301A00A960FB6F8949EBF0FBE8DBF08950E94A5
S11301B0E1028093A2068091A2060E94DE020E94C0
S11301C09F0280910001882309F454C08091A20603
S11301D08734E1F0823521F0823409F044C02CC028
S11301E010929F041092000181E00E9484000E94FA
S11301F06A0220919F04820F911DFC0180818093EB
S11302009E040E946E000E946800089581E080931D
S11302109F04109200010E9484000E946A022091AF
S11302209F04820F911DFC01808180939E040E9493
S11302306E000E946800089582E080939F041092EB
S1130240000181E00E9484000E946A0220919F04C0
S1130250820F911DFC01808180939E040E946E0098
S11302600E946800089580E00E948F0081E08093DE
S1130270A20408950E9474008091A206823431F48D
S113028060919E0480919F040E945B020E94AA00D8
S113029008958091A304882329F085B1806285B9EB
S11302A01092A3048091A404882329F085B18F7D42
S11302B085B91092A4048091A104882321F00E949E
S11302C0D7001092A1048091A004882351F060917A
S11302D0790080919F040E945B020E946800109242
S11302E0A0048091A204882339F080E00E94840055
S11302F00E9499021092A20408951F920F920FB6C1
S11303000F9211248F9381E08093A3048F910F9017
S11303100FBE0F901F9018951F920F920FB60F9259
S113032011248F9381E08093A4048F910F900FBECA
S11303300F901F9018951F920F920FB60F921124D1
S11303402F933F934F935F936F937F938F939F93D9
S1130350AF93BF93EF93FF936091790080919F04D3
S11303600E945B020E946800FF91EF91BF91AF91E0
S11303709F918F917F916F915F914F913F912F91B9
S11303800F900FBE0F901F9018951F920F920FB6EB
S11303900F9211248F9381E08093A1048F910F9089
S11303A00FBE0F901F9018951F920F920FB60F92C9
S11303B011242F933F934F935F936F937F938F9366
S11303C09F93AF93BF93EF93FF930E949600FF9187
S11303D0EF91BF91AF919F918F917F916F915F91B9
S11303E04F913F912F910F900FBE0F901F90189532
S11303F0F89487E690E00E948B020E94350284B153
S1130400866284B90E94530078940E947A000E9404
S11304104901FDCF8091A50487BD87B58F3F31F495
S1130420EEE6F0E080818D7F8083089587B58111A9
S113043006C0EEE6F0E080818E7F80830895EEE6CC
S1130440F0E080818360808308958091A70490E028
S1130450909389008093880008958091A60490E089
S113046090938B0080938A00089593E094BD84B5A3
S1130470806C84BD85E085BD90936E00A0E8B0E0FB
S113048081E08C93E1E8F0E088E080838C91806FD8
S11304908C9380818560808317BC10928B001092AE
S11304A08A00109289001092880016BC1092850070
S11304B010928400089590E0FC01EB55FB4F60839B
S11304C0880F991FFC01EC5FFB4F0190F081E02D38
S11304D00995089585EA94E00895E1ECF0E08081BF
S11304E08860808381E08093AB040895E1ECF0E0C0
S11304F08081806280830895E1ECF0E080818F7DCB
S113050080830895E1ECF0E080818061808381E064
S11305108093AA0408959093C5008093C40086E054
S11305208093C2000E9482020E946D021092AE0467
S11305300895E1ECF0E08081806880830895E1EC27
S1130540F0E080818F77808308959091AD04E091ED
S1130550AD0491E09E0F9093AD04F0E0E255FB4FA3
S1130560808381E008950F931F93CF938C01809132
S1130570AE048111FCCF81E08093A804F8010190BE
S11305800020E9F73197E01BF10BE093A9040E94E6
S11305907602C0E004C00E94A5028111CF5FF80179
S11305A0EC0FF11D80818111F6CFEC2FF0E0E255C4
S11305B0FB4F1082CF911F910F9108958093C60035
S11305C008958091C60008959091AC048091AD0483
S11305D0981798F4E091AC04F0E0E255FB4F808169
S11305E0882361F0E091AC0481E08E0F8093AC0429
S11305F0F0E0E255FB4F8081089580E00895109269
S1130600AC041092AD041092AE041092A90410929E
S1130610A8040E947C0208958091A804882341F0D4
S11306209091AC048091A904981304C080E00895CB
S113063080E0089581E00895AEE0B0E0E2E2F3E006
S11306400C94DD050D891E8986E08C831A83098349
S11306508FEF9FE79E838D83AE01475E5F4F6F8967
S1130660788DCE0101960E943E03EF81F885E00F5C
S1130670F11F10822E96E4E00C94F905ABE0B0E093
S1130680E4E4F3E00C94CF056C017B018A01FC01E6
S113069017821682838181FFCCC1CE0101963C0171
S11306A0F6019381F70193FD859193FF81917F0179
S11306B0882309F4BAC1853239F493FD859193FFF7
S11306C081917F01853229F4B60190E00E943505BD
S11306D0E7CF912C212C312CFFE1F315D8F08B328C
S11306E079F038F4803279F08332A1F4232D20613B
S11306F01DC08D3261F0803369F4232D216016C052
S1130700832D8260382EE32DE4603E2E2AC0F32D23
S1130710F8601DC037FC2DC020ED280F2A3040F0B2
S11307208E32B9F436FC81C1232D2064322E19C0D7
S113073036FE06C08AE0989E200D1124922E11C028
S1130740EAE02E9E200D1124222EF32DF0623F2E7E
S113075008C08C3621F4832D8068382E02C0883678
S113076041F4F70193FD859193FF81917F018111FC
S1130770B3CF982F9F7D9554933028F40C5F1F4F6F
S11307809FE399830DC0833631F0833771F083354D
S113079009F059C021C0F801808189830E5F1F4F81
S11307A088248394912C530113C02801F2E04F0E46
S11307B0511CF801A080B18036FE03C0692D70E0A1
S11307C002C06FEF7FEFC5010E942A054C01820130
S11307D0F32DFF773F2E16C0280122E0420E511C54
S11307E0F801A080B18036FE03C0692D70E002C01C
S11307F06FEF7FEFC5010E941F054C01F32DF068D8
S11308003F2E820133FC1BC0822D90E0881699068E
S1130810B0F4B60180E290E00E9435052A94F4CF4A
S1130820F50137FC859137FE81915F01B60190E0B7
S11308300E94350521102A9421E0821A910881141E
S1130840910471F7E8C0843611F0893641F5F80156
S113085037FE07C060817181828193810C5F1F4FD5
S113086008C060817181072E000C880B990B0E5F04
S11308701F4FF32DFF763F2E97FF09C0909580956B
S1130880709561957F4F8F4F9F4FF0683F2E2AE000
S113089030E0A3010E947105882E861845C0853773
S11308A031F4232D2F7EB22E2AE030E025C0932D83
S11308B0997FB92E8F36C1F018F4883579F0B5C018
S11308C0803719F0883721F0B0C0E92FE061BE2EDF
S11308D0B4FE0DC0FB2DF460BF2E09C034FE0AC067
S11308E0292F2660B22E06C028E030E005C020E1A2
S11308F030E002C020E132E0F801B7FE07C06081B9
S11309007181828193810C5F1F4F06C06081718168
S113091080E090E00E5F1F4FA3010E947105882EB6
S11309208618FB2DFF773F2E36FE0DC0232D2E7F1C
S1130930A22E891458F434FE0BC032FC09C0832D56
S11309408E7EA82E05C0B82CA32C03C0B82C01C0E1
S1130950B92CA4FE0FC0FE01E80DF11D8081803387
S113096021F49A2D997EA92E09C0A2FE06C0B39443
S1130970B39404C08A2D867809F0B394A3FC11C003
S1130980A0FE06C0B21488F4280C922C9B180EC04A
S1130990B21460F4B60180E290E00E943505B3948D
S11309A0F7CFB21418F42B1802C0982C212CA4FEF3
S11309B010C0B60180E390E00E943505A2FE17C086
S11309C0A1FC03C088E790E002C088E590E0B6018E
S11309D00CC08A2D867859F0A1FE02C08BE201C0BA
S11309E080E2A7FC8DE2B60190E00E9435058914EF
S11309F038F4B60180E390E00E9435059A94F7CF6D
S1130A008A94F301E80DF11D8081B60190E00E9403
S1130A1035058110F5CF222009F442CEB60180E2DB
S1130A2090E00E9435052A94F6CFF60186819781DD
S1130A3002C08FEF9FEF2B96E2E10C94EB05FC01D3
S1130A400590615070400110D8F7809590958E0FF5
S1130A509F1F0895FC016150704001900110D8F768
S1130A60809590958E0F9F1F08950F931F93CF939A
S1130A70DF93FB01238121FD03C08FEF9FEF2CC087
S1130A8022FF16C0468157812481358142175307BE
S1130A9044F4A081B1819D012F5F3F4F31832083B6
S1130AA08C93268137812F5F3F4F3783268314C071
S1130AB08B01EC01FB010084F185E02D0995892B64
S1130AC0E1F6D80116968D919C9117970196179689
S1130AD09C938E931697CE01DF91CF911F910F9126
S1130AE00895FA01AA27283051F1203181F1E894C0
S1130AF06F936E7F6E5F7F4F8F4F9F4FAF4FB1E00D
S1130B003ED0B4E03CD0670F781F891F9A1FA11D07
S1130B10680F791F8A1F911DA11D6A0F711D811D08
S1130B20911DA11D20D009F468943F912AE0269FCD
S1130B3011243019305D3193DEF6CF010895462F2C
S1130B404770405D4193B3E00FD0C9F7F6CF462F0D
S1130B504F70405D4A3318F0495D31FD4052419376
S1130B6002D0A9F7EACFB4E0A69597958795779533
S1130B706795BA95C9F700976105710508959B01BA
S1130B80AC010A2E06945795479537952795BA9543
S1130B90C9F7620F731F841F951FA01D08952F921C
S1130BA03F924F925F926F927F928F929F92AF92F9
S1130BB0BF92CF92DF92EF92FF920F931F93CF9346
S1130BC0DF93CDB7DEB7CA1BDB0B0FB6F894DEBFDD
S1130BD00FBECDBF09942A88398848885F846E8403
S1130BE07D848C849B84AA84B984C884DF80EE804D
S1130BF0FD800C811B81AA81B981CE0FD11D0FB656
S1130C00F894DEBF0FBECDBFED010895F894FFCF79
S1130C10010A0440040D0A53656C656363696F6ED1
S1130C206520756E61206C657472612070617261FB
S1130C30206D6F6469666963617220756E20636FED
S1130C406C6F723A0D0A5220285265642F526F6AF3
S1130C506F290D0A472028477265656E2F56657205
S1130C606465290D0A422028426C75652F417A7506
S1130C706C290D0A000000000000000000000000C4
S1130C800000000000000000000000000000000060
S1130C900000000000000000000000000000000050
S1130CA00000000000000000000000000000000040
S1130CB00000000000000000000000000000000030
S1130CC00000000000000000000000000000000020
S1130CD00000000000000000000000000000000010
S1130CE00000000000000000000000000000000000
S1130CF000000000000000000000000000000000F0
S1130D0000000000000000000000000000000000DF
S1130D10000000000D0A4D6F6469666971756520F5
S1130D20656C20706F74656E63696F6D6574726F46
S1130D3020706172612076617269617220656C2035
S1130D40636F6C6F722E200D0A5369206E6F2065DD
S1130D507374E120636F6E666F726D6520636F6EEE
S1130D6020656C20636F6C6F7220656C65676964C5
S1130D706F20792071756965726520766F6C766570
S1130D807220616C20636F6C6F7220616E74657287
S1130D90696F722070726573696F6E6520274227D0
S1130DA02C206361736F20636F6E74726172696F5C
S1130DB02070726573696F6E65206375616C7175FF
S1130DC0696572206F747261207465636C613A2086
S1130DD0000000000000000000000000000000000F
S1130DE000000000000000000000000000000000FF
S1130DF000000000000000000000000000000000EF
S1130E0000000000000000000000000000000000DE
S1130E100000000D0A4D6F64696669636163696F60
S1130E206E207265616C697A61646120636F6E2003
S1130E30657869746F2E0000000000000000000057
S1130E40000000000000000000000000000000009E
S1130E50000000000000000000000000000000008E
S1130E60000000000000000000000000000000007E
S1130E70000000000000000000000000000000006E
S1130E80000000000000000000000000000000005E
S1130E90000000000000000000000000000000004E
S1130EA0000000000000000000000000000000003E
S1130EB0000000000000000000000000000000002E
S1130EC0000000000000000000000000000000001E
S1130ED0000000000000000000000000000000000E
S1130EE000000000000000000000000000000000FE
S1130EF000000000000000000000000000000000EE
S1130F0000000000000000000000000000000000DD
S1130F10000075040A022D0225020D0A456C2063A7
S1130F206F6C6F72206D6F73747261646F2074697B
S1130F30656E6520656C20636F6469676F20524736
S1130F40422023253032582530325825303258007B
S1130F500D0A456C206461746F20696E6772657355
S1130F6061646F20657320696E76616C69646F2EAD
S1130F7020496E74656E74656C6F206465206E75AF
S1130F8065766F2E000D0A4269656E76656E69643A
S1130F907820616C20436F6E74726F6C61646F7241
S1110FA02064656C204C4544205247420000FA
S9030000FC
