S00B00005450342E7372656341
S11300000C9434000C9451000C9451000C94510045
S11300100C9451000C9451000C9451000C94510018
S11300200C9451000C9451000C9451000C94510008
S11300300C9451000C9451000C941F010C94510029
S11300400C942E010C9451000C944C010C945B0103
S11300500C9451000C943D010C9451000C945100EB
S11300600C9451000C94510011241FBECFEFD8E022
S1130070DEBFCDBF14E0A0E0B1E0E2E9F5E002C0EC
S113008005900D92A639B107D9F725E0A6E9B4E0A9
S113009001C01D92A23DB207E1F70E947F010C94BA
S11300A0C7020C940000ECE7F0E080E480838081D8
S11300B080628083808183608083EAE7F0E080E867
S11300C0808380818860808380818760808388E0EA
S11300D080937E000895EAE7F0E080818064808365
S11300E0089580910104909102040E94380281E0F5
S11300F08093980408952FEF829FC00111248C5F90
S11301009E4F0E943802089580910201909103014C
S11301100E94380208950E9466028093D00580915F
S1130120D0050E9463020E941D0280910101882370
S113013071F18091D005873469F0823519F08234E9
S1130140D1F410C0109200011092010181E00E94CC
S11301507B001AC081E080930001109201010E948B
S11301607B0012C082E0809300011092010181E0C3
S11301700E947B0009C083E08093000180E00E941C
S1130180840081E0809398040E94170208950E94DD
S11301906B0008950E948F02811105C00E948402A1
S11301A00E94FA0108950E9469028093D10580910A
S11301B0D105882321F08091D1050E94630208951E
S11301C060917900809100010E94CE010E941D027D
S11301D082E00E947B0081E0809301018093980477
S11301E0089580919904882329F085B1806285B9A6
S11301F01092990480919A04882329F085B18F7D07
S113020085B910929A0480919704882321F00E9462
S11302108B001092970480919604882321F00E9409
S1130220E0001092960480919804882339F080E0CD
S11302300E947B000E9417021092980408951F9256
S11302400F920FB60F9211248F9381E0809399043B
S11302508F910F900FBE0F901F9018951F920F92C1
S11302600FB60F9211248F9381E080939A048F919B
S11302700F900FBE0F901F9018951F920F920FB6FC
S11302800F9211248F9381E0809396048F910F90A5
S11302900FBE0F901F9018951F920F920FB60F92DA
S11302A011248F9381E0809397048F910F900FBE58
S11302B00F901F9018951F920F920FB60F92112452
S11302C02F933F934F935F936F937F938F939F935A
S11302D0AF93BF93EF93FF930E94CA00FF91EF91F6
S11302E0BF91AF919F918F917F916F915F914F914A
S11302F03F912F910F900FBE0F901F901895F89477
S113030087E690E00E9409020E94910184B186620E
S113031084B90E94530078940E9471000E94F100F5
S1130320FDCF93E094BD84B5806C84BD85E085BD2C
S113033090936E00A0E8B0E081E08C93E1E8F0E0F7
S113034088E080838C91806F8C938081856080832A
S11303508EEF87BD8EEF90E090938B0080938A00A0
S1130360909389008093880016BC109285001092A7
S11303708400089580919B0487BD089580919D0415
S113038090E09093890080938800089580919C0464
S113039090E090938B0080938A000895282FE82F93
S11303A0F0E03FEF6303C00111246FE770E00E94A7
S11303B09F02E556FB4F6083213039F018F022305C
S11303C039F008950E94BA0108950E94C601089563
S11303D00E94BE010895E1ECF0E080818860808392
S11303E081E08093A1040895E1ECF0E080818062D3
S11303F080830895E1ECF0E080818F7D808308950F
S1130400E1ECF0E080818061808381E08093A0044E
S113041008959093C5008093C40086E08093C20041
S11304200E9400020E94EB011092A4040895E1ECE2
S1130430F0E08081806880830895E1ECF0E08081C1
S11304408F7780830895CF93C82F8091A3040E944F
S1130450FA01E091A30481E08E0F8093A304F0E0FD
S1130460EC55FB4FC0830E94F40181E0CF910895C5
S11304700F931F93CF938C018091A4048111FCCF1F
S1130480F80101900020E9F73197E01BF10BE093AC
S11304909F0481E080939E040E94F401C0E004C0A4
S11304A00E9423028111CF5FF801EC0FF11D8081BE
S11304B08111F6CFEC2FF0E0EC55FB4F1082CF9179
S11304C01F910F9108958093C60008958091C600EE
S11304D008959091A2048091A304981798F4E09150
S11304E0A204F0E0EC55FB4F8081882361F0E09199
S11304F0A20481E08E0F8093A204F0E0EC55FB4F40
S11305008081089580E008951092A2041092A304BB
S11305101092A40410929F0410929E040895809156
S11305209E04882341F09091A20480919F04981323
S113053004C080E0089580E0089581E0089597FB69
S1130540072E16F4009407D077FD09D00E94B30259
S113055007FC05D03EF4909581959F4F08957095C2
S113056061957F4F0895AA1BBB1B51E107C0AA1FC9
S1130570BB1FA617B70710F0A61BB70B881F991F40
S11305805A95A9F780959095BC01CD010895F894EA
S1050590FFCF97
S1130592030139040D0A53656C656363696F6E6503
S11305A220756E61206C65747261207061726120C5
S11305B26D6F6469666963617220756E20636F6C26
S11305C26F723A0D0A5220285265642F526F6A6F75
S11305D2290D0A472028477265656E2F5665726495
S11305E265290D0A422028426C75652F417A756C83
S11305F2290D0A00000000000000000000000000B5
S113060200000000000000000000000000000000E4
S113061200000000000000000000000000000000D4
S113062200000000000000000000000000000000C4
S113063200000000000000000000000000000000B4
S113064200000000000000000000000000000000A4
S11306520000000000000000000000000000000094
S11306620000000000000000000000000000000084
S11306720000000000000000000000000000000074
S11306820000000000000000000000000000000064
S11306920000000D0A50617261206D6F6469666921
S11306A263617220656C206272696C6C6F20646590
S11306B26C20636F6C6F722073656C656363696F22
S11306C26E61646F2C206D6F646966697175652053
S11306D2656C20706F74656E63696F6D6574726F9B
S11306E22079206C7565676F2070726573696F6E0F
S11306F265206375616C7175696572207465636CDC
S1130702613A200000000000000000000000000028
S113071200000000000000000000000000000000D3
S113072200000000000000000000000000000000C3
S113073200000000000000000000000000000000B3
S113074200000000000000000000000000000000A3
S11307520000000000000000000000000000000093
S11307620000000000000000000000000000000083
S11307720000000000000000000000000000000073
S11307820000000000000000000000000000000063
S113079200000D0A4D6F64696669636163696F6E77
S11307A2207265616C697A61646120636F6E206591
S11307B27869746F2E000000000000000000000041
S11307C20000000000000000000000000000000023
S11307D20000000000000000000000000000000013
S11307E20000000000000000000000000000000003
S11307F200000000000000000000000000000000F3
S113080200000000000000000000000000000000E2
S113081200000000000000000000000000000000D2
S113082200000000000000000000000000000000C2
S113083200000000000000000000000000000000B2
S113084200000000000000000000000000000000A2
S11308520000000000000000000000000000000092
S11308620000000000000000000000000000000082
S11308720000000000000000000000000000000072
S11308820000000000000000000000000000000062
S1130892006E040D0A456C20636F6C6F72206D6FDD
S11308A273747261646F207469656E6520656C206F
S11308B2636F6469676F20524742202325303258A0
S11308C22530325825303258000D0A456C206461B7
S11308D2746F20696E6772657361646F206573203B
S11308E2696E76616C69646F2E20496E74656E74EC
S11308F2656C6F206465206E7565766F2E000D0A37
S11309024269656E76656E69647820616C20436F16
S11309126E74726F6C61646F722064656C204C45F6
S10909224420524742008C
S9030000FC
