S00B00005450342E7372656341
S11300000C9434000C9451000C9451000C94510045
S11300100C9451000C9451000C9451000C94510018
S11300200C9451000C9451000C9451000C94510008
S11300300C9451000C9451000C9451000C945100F8
S11300400C9451000C9451000C9481010C945100B7
S11300500C9451000C9447010C9451000C945100E1
S11300600C9451000C94510011241FBECFEFD8E022
S1130070DEBFCDBF12E0A0E0B1E0E2E3F5E002C0F4
S113008005900D92A23FB107D9F724E0A2EFB2E0A8
S113009001C01D92AC32B207E1F70E94A5010C9495
S11300A097020C940000ECE7F0E080E48083808108
S11300B080628083808183608083EAE7F0E080E867
S11300C0808380818760808388E080937E000895A8
S11300D0EAE7F0E0808180648083089580910E01D6
S11300E090910F010E944002089580910C0190911B
S11300F00D010E944002089580910A0190910B0124
S11301000E944002089580910601909107010E9487
S11301104002089580910801909109010E944002D3
S11301200895E82FF0E0EE0FFF1FEE5FFE4F808191
S113013091810E9440020895CF938091C6008093DC
S11301402A0480912A040E943D028091010188239F
S1130150B9F180912A04873479F0823519F0823418
S113016001F514C010920001109201010E947C005C
S113017081E08093F40289C0C1E0C0930001109231
S113018001010E947C00C093F4027FC082E080934E
S11301900001109201010E947C0081E08093F4022E
S11301A074C083E08093000180E00E9491008FE39B
S11301B09CE90197F1F700C000000E94750065C03A
S11301C08091F402882371F180912A048332B9F07A
S11301D08091F50290912A04880F282F220F220F74
S11301E0820F890F80538093F5028091F2029091DF
S11301F0F30201969093F3028093F20246C01092A8
S1130200F3021092F2028091F5028091F5021092AD
S1130210F4028091F502809329040E948A001092CE
S1130220F50233C080912A04823411F50E946800DB
S113023080917A0084FFFCCFEAE7F0E0808180615E
S113024080834091790060912904809100010E948B
S1130250FF019FEF21EE84E0915020408040E1F7C0
S113026000C0000081E0809301010E9475000DC070
S113027060912904809100010E94E90181E080934A
S113028001010E9483000E947500CF9108951F927E
S11302900F920FB60F9211242F933F934F935F93B6
S11302A06F937F938F939F93AF93BF93EF93FF933A
S11302B04091790060912904809100010E94FF011E
S11302C02FEF89E698E1215080409040E1F700C08B
S11302D0000081E0809301010E9483000E94750068
S11302E0FF91EF91BF91AF919F918F917F916F910A
S11302F05F914F913F912F910F900FBE0F901F90E0
S113030018951F920F920FB60F9211242F933F93BB
S11303104F935F936F937F938F939F93AF93BF9309
S1130320EF93FF930E949C00FF91EF91BF91AF91D7
S11303309F918F917F916F915F914F913F912F91F9
S11303400F900FBE0F901F901895F89487E690E0D9
S11303500E945C0284B1866284B980E48AB90E94F6
S1130360530078940E946E000E947500FFCFE6EF60
S1130370F2E080819181899FC001112464E670E0DC
S11303800E946F0267BD87B50895E6EFF2E08481AD
S11303909581899FC001112464E670E00E946F0278
S11303A0E8E8F0E071836083808191810895E6EF4D
S11303B0F2E082819381899FC001112464E670E098
S11303C00E946F02EAE8F0E071836083808191818A
S11303D00895E82FF0E0EE0FFF1FEA50FD4F608311
S11303E0813039F018F0823039F008950E94B70155
S11303F008950E94D70108950E94C5010895E82F29
S1130400F0E0EE0FFF1FEA50FD4F90E8941B91833C
S11304100E94E9010895E1ECF0E080818860808326
S11304200895E1ECF0E08081806180830895E1EC3F
S1130430F0E0808180688083089585B18F7D85B9DF
S11304402FEF80E792E0215080409040E1F700C018
S113045000008091C00085FFFCCF85B1806285B922
S11304602FEF80E792E0215080409040E1F700C0F8
S1130470000085B18F7D85B908958093C6000895E5
S1130480EF92FF920F931F93CF937C01C0E007C0BC
S11304900E941D02F80180810E943D02CF5F870106
S11304A00C0F111DF80180818111F2CFCF911F91A2
S11304B00F91FF90EF9008959093C5008093C4002E
S11304C086E08093C2000E9411020E940B0281E028
S11304D08093FC020E9417021092FD02089597FB7C
S11304E0072E16F4009407D077FD09D00E948302EA
S11304F007FC05D03EF4909581959F4F0895709523
S113050061957F4F0895AA1BBB1B51E107C0AA1F29
S1130510BB1FA617B70710F0A61BB70B881F991FA0
S11305205A95A9F780959095BC01CD010895F8944A
S1050530FFCFF7
S11305320301100144018201A80148026C02CC02A9
S1130542456C206461746F20696E677265736164BF
S11305526F20657320696E76616C69646F2E204921
S11305626E74656E74656C6F206465206E75657655
S11305726F2E0A00456C206E756D65726F20696E70
S11305826772657361646F20657374612066756553
S113059272612064652072616E676F2E20496E74E9
S11305A2656E74656C6F206465206E7565766F2E5A
S11305B20A000D0A4D6F64696669636163696F6E4F
S11305C2207265616C697A61646120636F6E206573
S11305D27869746F2E0D0A000D0A536920646573DD
S11305E26561206D6F6469666963617220656C2060
S11305F26272696C6C6F2064656C20636F6C6F72DD
S11306022073656C656363696F6E61646F2C206D22
S11306126F6469666971756520656C20706F7465B5
S11306226E63696F6D6574726F2079206C7565678E
S11306326F2070726573696F6E65206C61207465DA
S1130642636C61202742272C206361736F20636FE0
S11306526E74726172696F2070726573696F6E6510
S1130662206375616C7175696572206F74726120A3
S11306727465636C613A20000D0A496E6772657392
S11306826520756E206E756D65726F20656E74726D
S11306926520302079203235353A20000D0A536521
S11306A26C656363696F6E6520756E61206C657439
S11306B272612070617261206D6F64696669636141
S11306C27220756E20636F6C6F723A0D0A52202885
S11306D25265642F526F6A6F290D0A4720284772A8
S11306E265656E2F5665726465290D0A422028429B
S11306F26C75652F417A756C290D0A004269656E25
S113070276656E69647820616C20436F6E74726FD3
S11307126C61646F722064656C204C4544205247BE
S105072242008F
S9030000FC
