S00B00005450342E7372656341
S11300000C9434000C9451000C9451000C94510045
S11300100C9451000C9451000C9451000C94510018
S11300200C9451000C9451000C9451000C94510008
S11300300C9451000C9451000C943F010C94510009
S11300400C944E010C9451000C946C010C947B01A3
S11300500C9451000C945D010C9451000C945100CB
S11300600C9451000C94510011241FBECFEFD8E022
S1130070DEBFCDBF14E0A0E0B1E0ECE4FBE002C0E1
S113008005900D92AE39B107D9F726E0AEE9B4E098
S113009001C01D92A23AB207E1F70E949F010C949D
S11300A0A4050C940000ECE7F0E080E480838081F8
S11300B080628083808183608083EAE7F0E080E867
S11300C0808380818860808380818760808388E0EA
S11300D080937E000895EAE7F0E080818064808365
S11300E0089580910304909104040E94510281E0D8
S11300F08093A00408952FEF829FC00111248A5F8A
S11301009E4F0E945102089580910401909105012F
S11301100E94510208950E947F028093A00680915C
S1130120A0060E947C020E943D0280910101882366
S113013071F18091A006873469F0823519F0823418
S1130140D1F410C0109200011092010181E00E94CC
S11301507B001AC081E080930001109201010E948B
S11301607B0012C082E0809300011092010181E0C3
S11301700E947B0009C083E08093000180E00E941C
S1130180840081E08093A0040E94370208950E94B5
S11301906B0008950E94AA02811103C00E949D026F
S11301A008950E9482028093A1068091A10688236B
S11301B021F08091A1060E947C020895609179004B
S11301C0809100010E94F90182E00E947B000E945C
S11301D00802FC012281918180811F922F931F923A
S11301E09F931F928F93809103018F9380910201BB
S11301F08F9388ED95E09F938F930E94BA0288EDC8
S113020095E00E94510281E0809301018093A00453
S11302108DB79EB70A960FB6F8949EBF0FBE8DBFDA
S113022008958091A104882329F085B1806285B95D
S11302301092A1048091A204882329F085B18F7DB6
S113024085B91092A20480919F04882321F00E9412
S11302508B0010929F0480919E04882321F00E94B9
S1130260DE0010929E048091A004882339F080E07F
S11302700E947B000E9437021092A00408951F92EE
S11302800F920FB60F9211248F9381E08093A104F3
S11302908F910F900FBE0F901F9018951F920F9281
S11302A00FB60F9211248F9381E08093A2048F9153
S11302B00F900FBE0F901F9018951F920F920FB6BC
S11302C00F9211248F9381E080939E048F910F905D
S11302D00FBE0F901F9018951F920F920FB60F929A
S11302E011248F9381E080939F048F910F900FBE10
S11302F00F901F9018951F920F920FB60F92112412
S11303002F933F934F935F936F937F938F939F9319
S1130310AF93BF93EF93FF930E94CA00FF91EF91B5
S1130320BF91AF919F918F917F916F915F914F9109
S11303303F912F910F900FBE0F901F901895F89436
S113034087E690E00E9429020E94D30184B186626C
S113035084B90E94530078940E9471000E94110194
S1130360FDCF8091A30487BD87B58F3F31F4EEE6BE
S1130370F0E080818D7F80830895EEE6F0E0808157
S11303808260808308958091A50490E09093890011
S11303908093880008958091A40490E090938B004A
S11303A080938A00089593E094BD84B5806C84BDE5
S11303B085E085BD90936E00A0E8B0E081E08C9369
S11303C0E1E8F0E088E080838C91806F8C938081F9
S11303D08560808317BC10928B0010928A00109263
S11303E089001092880016BC109285001092840037
S11303F0089590E0FC01ED55FB4F6083880F991F31
S1130400FC01EB5FFB4F0190F081E02D099508950D
S113041083EA94E00895E1ECF0E0808188608083D1
S113042081E08093A9040895E1ECF0E0808180628A
S113043080830895E1ECF0E080818F7D80830895CE
S1130440E1ECF0E080818061808381E08093A80406
S113045008959093C5008093C40086E08093C20001
S11304600E9420020E940B021092AC040895E1EC59
S1130470F0E08081806880830895E1ECF0E0808181
S11304808F77808308959091AB04E091AB0491E061
S11304909E0F9093AB04F0E0E455FB4F808381E022
S11304A008950F931F93CF938C018091AC04811115
S11304B0FCCF81E08093A604F80101900020E9F7C5
S11304C03197E01BF10BE093A7040E941402C0E0F3
S11304D004C00E9443028111CF5FF801EC0FF11DAB
S11304E080818111F6CFEC2FF0E0E455FB4F1082B0
S11304F0CF911F910F9108958093C6000895809124
S1130500C60008959091AA048091AB04981798F4BA
S1130510E091AA04F0E0E455FB4F8081882361F068
S1130520E091AA0481E08E0F8093AA04F0E0E455E0
S1130530FB4F8081089580E008951092AA041092E0
S1130540AB041092AC041092A7041092A6040E946B
S11305501A0208958091A604882341F09091AA0478
S11305608091A704981304C080E0089580E0089562
S113057081E00895AEE0B0E0E0ECF2E00C947B059D
S11305800D891E8986E08C831A8309838FEF9FE788
S11305909E838D83AE01475E5F4F6F89788DCE0158
S11305A001960E94DC02EF81F885E00FF11F1082B2
S11305B02E96E4E00C949705ABE0B0E0E2EEF2E0B6
S11305C00C946D056C017B018A01FC011782168273
S11305D0838181FFCCC1CE0101963C01F601938158
S11305E0F70193FD859193FF81917F01882309F49D
S11305F0BAC1853239F493FD859193FF81917F01CE
S1130600853229F4B60190E00E94D304E7CF912CFF
S1130610212C312CFFE1F315D8F08B3279F038F42A
S1130620803279F08332A1F4232D20611DC08D32F4
S113063061F0803369F4232D216016C0832D82601C
S1130640382EE32DE4603E2E2AC0F32DF8601DC041
S113065037FC2DC020ED280F2A3040F08E32B9F43B
S113066036FC81C1232D2064322E19C036FE06C00B
S11306708AE0989E200D1124922E11C0EAE02E9E4D
S1130680200D1124222EF32DF0623F2E08C08C364B
S113069021F4832D8068382E02C0883641F4F70196
S11306A093FD859193FF81917F018111B3CF982FA1
S11306B09F7D9554933028F40C5F1F4F9FE39983DB
S11306C00DC0833631F0833771F0833509F059C09A
S11306D021C0F801808189830E5F1F4F8824839491
S11306E0912C530113C02801F2E04F0E511CF80164
S11306F0A080B18036FE03C0692D70E002C06FEFA8
S11307007FEFC5010E94C8044C018201F32DFF77DD
S11307103F2E16C0280122E0420E511CF801A08091
S1130720B18036FE03C0692D70E002C06FEF7FEF29
S1130730C5010E94BD044C01F32DF0683F2E8201D7
S113074033FC1BC0822D90E088169906B0F4B601E4
S113075080E290E00E94D3042A94F4CFF50137FCA0
S1130760859137FE81915F01B60190E00E94D30428
S113077021102A9421E0821A91088114910471F7BE
S1130780E8C0843611F0893641F5F80137FE07C018
S113079060817181828193810C5F1F4F08C06081E9
S11307A07181072E000C880B990B0E5F1F4FF32DE0
S11307B0FF763F2E97FF09C09095809570956195BF
S11307C07F4F8F4F9F4FF0683F2E2AE030E0A30108
S11307D00E940F05882E861845C0853731F4232DD5
S11307E02F7EB22E2AE030E025C0932D997FB92EBA
S11307F08F36C1F018F4883579F0B5C0803719F018
S1130800883721F0B0C0E92FE061BE2EB4FE0DC0E0
S1130810FB2DF460BF2E09C034FE0AC0292F2660C8
S1130820B22E06C028E030E005C020E130E002C06E
S113083020E132E0F801B7FE07C060817181828156
S113084093810C5F1F4F06C06081718180E090E04E
S11308500E5F1F4FA3010E940F05882E8618FB2DE3
S1130860FF773F2E36FE0DC0232D2E7FA22E891436
S113087058F434FE0BC032FC09C0832D8E7EA82EA2
S113088005C0B82CA32C03C0B82C01C0B92CA4FEFD
S11308900FC0FE01E80DF11D8081803321F49A2DF3
S11308A0997EA92E09C0A2FE06C0B394B39404C0D5
S11308B08A2D867809F0B394A3FC11C0A0FE06C06B
S11308C0B21488F4280C922C9B180EC0B21460F455
S11308D0B60180E290E00E94D304B394F7CFB2143F
S11308E018F42B1802C0982C212CA4FE10C0B601B9
S11308F080E390E00E94D304A2FE17C0A1FC03C0D1
S113090088E790E002C088E590E0B6010CC08A2D2B
S1130910867859F0A1FE02C08BE201C080E2A7FCF8
S11309208DE2B60190E00E94D304891438F4B60134
S113093080E390E00E94D3049A94F7CF8A94F30161
S1130940E80DF11D8081B60190E00E94D30481106E
S1130950F5CF222009F442CEB60180E290E00E9455
S1130960D3042A94F6CFF6018681978102C08FEFD3
S11309709FEF2B96E2E10C948905FC0105906150F0
S113098070400110D8F7809590958E0F9F1F0895A1
S1130990FC016150704001900110D8F7809590954A
S11309A08E0F9F1F08950F931F93CF93DF93FB0127
S11309B0238121FD03C08FEF9FEF2CC022FF16C0BF
S11309C046815781248135814217530744F4A0811D
S11309D0B1819D012F5F3F4F318320838C9326810A
S11309E037812F5F3F4F3783268314C08B01EC017F
S11309F0FB010084F185E02D0995892BE1F6D801EE
S1130A0016968D919C911797019617969C938E93A9
S1130A101697CE01DF91CF911F910F910895FA019E
S1130A20AA27283051F1203181F1E8946F936E7F29
S1130A306E5F7F4F8F4F9F4FAF4FB1E03ED0B4E01A
S1130A403CD0670F781F891F9A1FA11D680F791F5B
S1130A508A1F911DA11D6A0F711D811D911DA11D6C
S1130A6020D009F468943F912AE0269F112430197C
S1130A70305D3193DEF6CF010895462F4770405D17
S1130A804193B3E00FD0C9F7F6CF462F4F70405DC6
S1130A904A3318F0495D31FD4052419302D0A9F721
S1130AA0EACFB4E0A6959795879577956795BA951B
S1130AB0C9F700976105710508959B01AC010A2EE1
S1130AC006945795479537952795BA95C9F7620FB8
S1130AD0731F841F951FA01D08952F923F924F925C
S1130AE05F926F927F928F929F92AF92BF92CF92BA
S1130AF0DF92EF92FF920F931F93CF93DF93CDB7C3
S1130B00DEB7CA1BDB0B0FB6F894DEBF0FBECDBF3A
S1130B1009942A88398848885F846E847D848C840B
S1130B209B84AA84B984C884DF80EE80FD800C8114
S1130B301B81AA81B981CE0FD11D0FB6F894DEBFF7
S10F0B400FBECDBFED010895F894FFCF67
S1130B4C03010B0441040D0A53656C656363696FFF
S1130B5C6E6520756E61206C6574726120706172B3
S1130B6C61206D6F6469666963617220756E2063C0
S1130B7C6F6C6F723A0D0A5220285265642F526FB3
S1130B8C6A6F290D0A472028477265656E2F5665D2
S1130B9C726465290D0A422028426C75652F417ACE
S1130BAC756C290D0A000000000000000000000014
S1130BBC0000000000000000000000000000000025
S1130BCC0000000000000000000000000000000015
S1130BDC0000000000000000000000000000000005
S1130BEC00000000000000000000000000000000F5
S1130BFC00000000000000000000000000000000E5
S1130C0C00000000000000000000000000000000D4
S1130C1C00000000000000000000000000000000C4
S1130C2C00000000000000000000000000000000B4
S1130C3C00000000000000000000000000000000A4
S1130C4C00000000000D0A50617261206D6F646930
S1130C5C666963617220656C206272696C6C6F20CA
S1130C6C64656C20636F6C6F722073656C65636371
S1130C7C696F6E61646F2C206D6F64696669717540
S1130C8C6520656C20706F74656E63696F6D657437
S1130C9C726F2079206C7565676F2070726573694B
S1130CAC6F6E65206375616C71756965722074650E
S1130CBC636C613A2000000000000000000000009A
S1130CCC0000000000000000000000000000000014
S1130CDC0000000000000000000000000000000004
S1130CEC00000000000000000000000000000000F4
S1130CFC00000000000000000000000000000000E4
S1130D0C00000000000000000000000000000000D3
S1130D1C00000000000000000000000000000000C3
S1130D2C00000000000000000000000000000000B3
S1130D3C00000000000000000000000000000000A3
S1130D4C000000000D0A4D6F646966696361636994
S1130D5C6F6E207265616C697A61646120636F6E79
S1130D6C20657869746F2E000000000000000000FC
S1130D7C0000000000000000000000000000000063
S1130D8C0000000000000000000000000000000053
S1130D9C0000000000000000000000000000000043
S1130DAC0000000000000000000000000000000033
S1130DBC0000000000000000000000000000000023
S1130DCC0000000000000000000000000000000013
S1130DDC0000000000000000000000000000000003
S1130DEC00000000000000000000000000000000F3
S1130DFC00000000000000000000000000000000E3
S1130E0C00000000000000000000000000000000D2
S1130E1C00000000000000000000000000000000C2
S1130E2C00000000000000000000000000000000B2
S1130E3C00000000000000000000000000000000A2
S1130E4C0000007604B101CB01C3010D0A456C20EE
S1130E5C636F6C6F72206D6F73747261646F207446
S1130E6C69656E6520656C20636F6469676F2052D9
S1130E7C47422023253032582530325825303258F9
S1130E8C000D0A456C206461746F20696E6772658D
S1130E9C7361646F20657320696E76616C69646F2D
S1130EAC2E20496E74656E74656C6F206465206EBB
S1130EBC7565766F2E000D0A4269656E76656E69EE
S1130ECC647820616C20436F6E74726F6C61646F14
S1110EDC722064656C204C454420524742004D
S9030000FC
